{
  "_format": "hh-sol-artifact-1",
  "contractName": "TicketSystem",
  "sourceName": "contracts/TicketSystem.sol",
  "abi": [
    {
      "inputs": [],
      "name": "ECDSAInvalidSignature",
      "type": "error"
    },
    {
      "inputs": [
        {
          "internalType": "uint256",
          "name": "length",
          "type": "uint256"
        }
      ],
      "name": "ECDSAInvalidSignatureLength",
      "type": "error"
    },
    {
      "inputs": [
        {
          "internalType": "bytes32",
          "name": "s",
          "type": "bytes32"
        }
      ],
      "name": "ECDSAInvalidSignatureS",
      "type": "error"
    },
    {
      "inputs": [],
      "name": "ReentrancyGuardReentrantCall",
      "type": "error"
    },
    {
      "anonymous": false,
      "inputs": [
        {
          "indexed": true,
          "internalType": "uint256",
          "name": "eventId",
          "type": "uint256"
        },
        {
          "indexed": false,
          "internalType": "string",
          "name": "name",
          "type": "string"
        },
        {
          "indexed": false,
          "internalType": "uint256",
          "name": "date",
          "type": "uint256"
        },
        {
          "indexed": false,
          "internalType": "address",
          "name": "creator",
          "type": "address"
        }
      ],
      "name": "EventCreated",
      "type": "event"
    },
    {
      "anonymous": false,
      "inputs": [
        {
          "indexed": true,
          "internalType": "uint256",
          "name": "eventId",
          "type": "uint256"
        },
        {
          "indexed": true,
          "internalType": "uint256",
          "name": "ticketId",
          "type": "uint256"
        },
        {
          "indexed": false,
          "internalType": "address",
          "name": "buyer",
          "type": "address"
        }
      ],
      "name": "TicketPurchased",
      "type": "event"
    },
    {
      "anonymous": false,
      "inputs": [
        {
          "indexed": true,
          "internalType": "uint256",
          "name": "eventId",
          "type": "uint256"
        },
        {
          "indexed": true,
          "internalType": "uint256",
          "name": "ticketId",
          "type": "uint256"
        },
        {
          "indexed": false,
          "internalType": "address",
          "name": "user",
          "type": "address"
        }
      ],
      "name": "TicketUsed",
      "type": "event"
    },
    {
      "inputs": [
        {
          "internalType": "uint256",
          "name": "",
          "type": "uint256"
        }
      ],
      "name": "allEventIds",
      "outputs": [
        {
          "internalType": "uint256",
          "name": "",
          "type": "uint256"
        }
      ],
      "stateMutability": "view",
      "type": "function"
    },
    {
      "inputs": [
        {
          "internalType": "uint256",
          "name": "_eventId",
          "type": "uint256"
        }
      ],
      "name": "buyTicket",
      "outputs": [],
      "stateMutability": "payable",
      "type": "function"
    },
    {
      "inputs": [
        {
          "internalType": "string",
          "name": "_name",
          "type": "string"
        },
        {
          "internalType": "string",
          "name": "_location",
          "type": "string"
        },
        {
          "internalType": "string",
          "name": "_description",
          "type": "string"
        },
        {
          "internalType": "string",
          "name": "_imageSrc",
          "type": "string"
        },
        {
          "internalType": "uint256",
          "name": "_date",
          "type": "uint256"
        },
        {
          "internalType": "uint256",
          "name": "_totalTickets",
          "type": "uint256"
        },
        {
          "internalType": "uint256",
          "name": "_ticketPrice",
          "type": "uint256"
        }
      ],
      "name": "createEvent",
      "outputs": [],
      "stateMutability": "nonpayable",
      "type": "function"
    },
    {
      "inputs": [
        {
          "internalType": "uint256",
          "name": "",
          "type": "uint256"
        }
      ],
      "name": "eventCreators",
      "outputs": [
        {
          "internalType": "address",
          "name": "",
          "type": "address"
        }
      ],
      "stateMutability": "view",
      "type": "function"
    },
    {
      "inputs": [
        {
          "internalType": "uint256",
          "name": "",
          "type": "uint256"
        }
      ],
      "name": "events",
      "outputs": [
        {
          "internalType": "uint256",
          "name": "id",
          "type": "uint256"
        },
        {
          "internalType": "string",
          "name": "name",
          "type": "string"
        },
        {
          "internalType": "string",
          "name": "location",
          "type": "string"
        },
        {
          "internalType": "string",
          "name": "description",
          "type": "string"
        },
        {
          "internalType": "string",
          "name": "imageSrc",
          "type": "string"
        },
        {
          "internalType": "uint256",
          "name": "date",
          "type": "uint256"
        },
        {
          "internalType": "uint256",
          "name": "totalTickets",
          "type": "uint256"
        },
        {
          "internalType": "uint256",
          "name": "ticketsSold",
          "type": "uint256"
        },
        {
          "internalType": "uint256",
          "name": "ticketPrice",
          "type": "uint256"
        },
        {
          "internalType": "bool",
          "name": "isActive",
          "type": "bool"
        }
      ],
      "stateMutability": "view",
      "type": "function"
    },
    {
      "inputs": [],
      "name": "getAllEvents",
      "outputs": [
        {
          "components": [
            {
              "internalType": "uint256",
              "name": "id",
              "type": "uint256"
            },
            {
              "internalType": "string",
              "name": "name",
              "type": "string"
            },
            {
              "internalType": "string",
              "name": "location",
              "type": "string"
            },
            {
              "internalType": "string",
              "name": "description",
              "type": "string"
            },
            {
              "internalType": "string",
              "name": "imageSrc",
              "type": "string"
            },
            {
              "internalType": "uint256",
              "name": "date",
              "type": "uint256"
            },
            {
              "internalType": "uint256",
              "name": "totalTickets",
              "type": "uint256"
            },
            {
              "internalType": "uint256",
              "name": "ticketsSold",
              "type": "uint256"
            },
            {
              "internalType": "uint256",
              "name": "ticketPrice",
              "type": "uint256"
            },
            {
              "internalType": "bool",
              "name": "isActive",
              "type": "bool"
            }
          ],
          "internalType": "struct TicketSystem.Event[]",
          "name": "",
          "type": "tuple[]"
        }
      ],
      "stateMutability": "view",
      "type": "function"
    },
    {
      "inputs": [],
      "name": "getEventCount",
      "outputs": [
        {
          "internalType": "uint256",
          "name": "",
          "type": "uint256"
        }
      ],
      "stateMutability": "view",
      "type": "function"
    },
    {
      "inputs": [
        {
          "internalType": "uint256",
          "name": "_eventId",
          "type": "uint256"
        },
        {
          "internalType": "uint256",
          "name": "_ticketId",
          "type": "uint256"
        },
        {
          "internalType": "address",
          "name": "_owner",
          "type": "address"
        }
      ],
      "name": "getMessageHash",
      "outputs": [
        {
          "internalType": "bytes32",
          "name": "",
          "type": "bytes32"
        }
      ],
      "stateMutability": "pure",
      "type": "function"
    },
    {
      "inputs": [
        {
          "internalType": "address",
          "name": "_user",
          "type": "address"
        }
      ],
      "name": "getUserTickets",
      "outputs": [
        {
          "components": [
            {
              "internalType": "uint256",
              "name": "eventId",
              "type": "uint256"
            },
            {
              "internalType": "address",
              "name": "owner",
              "type": "address"
            },
            {
              "internalType": "bool",
              "name": "isUsed",
              "type": "bool"
            }
          ],
          "internalType": "struct TicketSystem.Ticket[]",
          "name": "",
          "type": "tuple[]"
        }
      ],
      "stateMutability": "view",
      "type": "function"
    },
    {
      "inputs": [],
      "name": "nextEventId",
      "outputs": [
        {
          "internalType": "uint256",
          "name": "",
          "type": "uint256"
        }
      ],
      "stateMutability": "view",
      "type": "function"
    },
    {
      "inputs": [],
      "name": "nextTicketId",
      "outputs": [
        {
          "internalType": "uint256",
          "name": "",
          "type": "uint256"
        }
      ],
      "stateMutability": "view",
      "type": "function"
    },
    {
      "inputs": [
        {
          "internalType": "uint256",
          "name": "",
          "type": "uint256"
        },
        {
          "internalType": "uint256",
          "name": "",
          "type": "uint256"
        }
      ],
      "name": "tickets",
      "outputs": [
        {
          "internalType": "uint256",
          "name": "eventId",
          "type": "uint256"
        },
        {
          "internalType": "address",
          "name": "owner",
          "type": "address"
        },
        {
          "internalType": "bool",
          "name": "isUsed",
          "type": "bool"
        }
      ],
      "stateMutability": "view",
      "type": "function"
    },
    {
      "inputs": [
        {
          "internalType": "uint256",
          "name": "_eventId",
          "type": "uint256"
        },
        {
          "internalType": "uint256",
          "name": "_ticketId",
          "type": "uint256"
        },
        {
          "internalType": "bytes",
          "name": "_signature",
          "type": "bytes"
        }
      ],
      "name": "useTicket",
      "outputs": [],
      "stateMutability": "nonpayable",
      "type": "function"
    },
    {
      "inputs": [
        {
          "internalType": "address",
          "name": "",
          "type": "address"
        },
        {
          "internalType": "uint256",
          "name": "",
          "type": "uint256"
        }
      ],
      "name": "userTicketIds",
      "outputs": [
        {
          "internalType": "uint256",
          "name": "eventId",
          "type": "uint256"
        },
        {
          "internalType": "address",
          "name": "owner",
          "type": "address"
        },
        {
          "internalType": "bool",
          "name": "isUsed",
          "type": "bool"
        }
      ],
      "stateMutability": "view",
      "type": "function"
    },
    {
      "inputs": [
        {
          "internalType": "uint256",
          "name": "_eventId",
          "type": "uint256"
        },
        {
          "internalType": "uint256",
          "name": "_ticketId",
          "type": "uint256"
        },
        {
          "internalType": "bytes",
          "name": "_signature",
          "type": "bytes"
        }
      ],
      "name": "verifyTicket",
      "outputs": [
        {
          "internalType": "bool",
          "name": "",
          "type": "bool"
        }
      ],
      "stateMutability": "view",
      "type": "function"
    }
  ],
  "bytecode": "0x60806040526001600655600160075534801561001a57600080fd5b506001600081905550613174806100326000396000f3fe6080604052600436106100e85760003560e01c80639f9d903a1161008a578063d0ed06a111610059578063d0ed06a11461031a578063d9e48f5c14610357578063e0b31de614610382578063e45d309c146103bf576100e8565b80639f9d903a1461025c578063a374e43f14610287578063b3be7f01146102c6578063c27a500d146102ef576100e8565b80636031a52f116100c65780636031a52f1461019957806367dd74ca146101c45780637d77f694146101e057806395fa6c501461021f576100e8565b80630484a22f146100ed5780630b7914301461012a5780635d64c1b614610170575b600080fd5b3480156100f957600080fd5b50610114600480360381019061010f9190611d6e565b6103fc565b6040516101219190611ecf565b60405180910390f35b34801561013657600080fd5b50610151600480360381019061014c9190611f1d565b6105c9565b6040516101679a99989796959493929190611ff8565b60405180910390f35b34801561017c57600080fd5b50610197600480360381019061019291906121e5565b61084a565b005b3480156101a557600080fd5b506101ae6109fa565b6040516101bb9190612254565b60405180910390f35b6101de60048036038101906101d99190611f1d565b610a00565b005b3480156101ec57600080fd5b506102076004803603810190610202919061226f565b611001565b604051610216939291906122be565b60405180910390f35b34801561022b57600080fd5b5061024660048036038101906102419190611f1d565b611075565b60405161025391906122f5565b60405180910390f35b34801561026857600080fd5b506102716110a8565b60405161027e9190612254565b60405180910390f35b34801561029357600080fd5b506102ae60048036038101906102a99190612310565b6110ae565b6040516102bd939291906122be565b60405180910390f35b3480156102d257600080fd5b506102ed60048036038101906102e891906123f1565b611112565b005b3480156102fb57600080fd5b5061030461137f565b60405161031191906126fe565b60405180910390f35b34801561032657600080fd5b50610341600480360381019061033c9190611f1d565b6116f9565b60405161034e9190612254565b60405180910390f35b34801561036357600080fd5b5061036c61171d565b6040516103799190612254565b60405180910390f35b34801561038e57600080fd5b506103a960048036038101906103a491906121e5565b61172a565b6040516103b69190612720565b60405180910390f35b3480156103cb57600080fd5b506103e660048036038101906103e1919061273b565b6118d2565b6040516103f391906127a7565b60405180910390f35b60606000600560008473ffffffffffffffffffffffffffffffffffffffff1673ffffffffffffffffffffffffffffffffffffffff16815260200190815260200160002080549050905060008167ffffffffffffffff811115610461576104606120ba565b5b60405190808252806020026020018201604052801561049a57816020015b610487611c6e565b81526020019060019003908161047f5790505b50905060005b828110156105be57600560008673ffffffffffffffffffffffffffffffffffffffff1673ffffffffffffffffffffffffffffffffffffffff16815260200190815260200160002081815481106104f9576104f86127c2565b5b9060005260206000209060020201604051806060016040529081600082015481526020016001820160009054906101000a900473ffffffffffffffffffffffffffffffffffffffff1673ffffffffffffffffffffffffffffffffffffffff1673ffffffffffffffffffffffffffffffffffffffff1681526020016001820160149054906101000a900460ff1615151515815250508282815181106105a05761059f6127c2565b5b602002602001018190525080806105b690612820565b9150506104a0565b508092505050919050565b60026020528060005260406000206000915090508060000154908060010180546105f290612897565b80601f016020809104026020016040519081016040528092919081815260200182805461061e90612897565b801561066b5780601f106106405761010080835404028352916020019161066b565b820191906000526020600020905b81548152906001019060200180831161064e57829003601f168201915b50505050509080600201805461068090612897565b80601f01602080910402602001604051908101604052809291908181526020018280546106ac90612897565b80156106f95780601f106106ce576101008083540402835291602001916106f9565b820191906000526020600020905b8154815290600101906020018083116106dc57829003601f168201915b50505050509080600301805461070e90612897565b80601f016020809104026020016040519081016040528092919081815260200182805461073a90612897565b80156107875780601f1061075c57610100808354040283529160200191610787565b820191906000526020600020905b81548152906001019060200180831161076a57829003601f168201915b50505050509080600401805461079c90612897565b80601f01602080910402602001604051908101604052809291908181526020018280546107c890612897565b80156108155780601f106107ea57610100808354040283529160200191610815565b820191906000526020600020905b8154815290600101906020018083116107f857829003601f168201915b5050505050908060050154908060060154908060070154908060080154908060090160009054906101000a900460ff1690508a565b6003600084815260200190815260200160002060009054906101000a900473ffffffffffffffffffffffffffffffffffffffff1673ffffffffffffffffffffffffffffffffffffffff163373ffffffffffffffffffffffffffffffffffffffff16146108eb576040517f08c379a00000000000000000000000000000000000000000000000000000000081526004016108e29061293a565b60405180910390fd5b6108f683838361172a565b610935576040517f08c379a000000000000000000000000000000000000000000000000000000000815260040161092c906129a6565b60405180910390fd5b600160046000858152602001908152602001600020600084815260200190815260200160002060010160146101000a81548160ff02191690831515021790555081837fb35ebdfb9515b145e406c5c5a0846ec436db0b9560927af3af7a754d90c4f6ff60046000878152602001908152602001600020600086815260200190815260200160002060010160009054906101000a900473ffffffffffffffffffffffffffffffffffffffff166040516109ed91906122f5565b60405180910390a3505050565b60075481565b610a08611908565b6000600260008381526020019081526020016000206040518061014001604052908160008201548152602001600182018054610a4390612897565b80601f0160208091040260200160405190810160405280929190818152602001828054610a6f90612897565b8015610abc5780601f10610a9157610100808354040283529160200191610abc565b820191906000526020600020905b815481529060010190602001808311610a9f57829003601f168201915b50505050508152602001600282018054610ad590612897565b80601f0160208091040260200160405190810160405280929190818152602001828054610b0190612897565b8015610b4e5780601f10610b2357610100808354040283529160200191610b4e565b820191906000526020600020905b815481529060010190602001808311610b3157829003601f168201915b50505050508152602001600382018054610b6790612897565b80601f0160208091040260200160405190810160405280929190818152602001828054610b9390612897565b8015610be05780601f10610bb557610100808354040283529160200191610be0565b820191906000526020600020905b815481529060010190602001808311610bc357829003601f168201915b50505050508152602001600482018054610bf990612897565b80601f0160208091040260200160405190810160405280929190818152602001828054610c2590612897565b8015610c725780601f10610c4757610100808354040283529160200191610c72565b820191906000526020600020905b815481529060010190602001808311610c5557829003601f168201915b50505050508152602001600582015481526020016006820154815260200160078201548152602001600882015481526020016009820160009054906101000a900460ff1615151515815250509050806101200151610d05576040517f08c379a0000000000000000000000000000000000000000000000000000000008152600401610cfc90612a12565b60405180910390fd5b8060a001514210610d4b576040517f08c379a0000000000000000000000000000000000000000000000000000000008152600401610d4290612a7e565b60405180910390fd5b8060c001518160e0015110610d95576040517f08c379a0000000000000000000000000000000000000000000000000000000008152600401610d8c90612aea565b60405180910390fd5b8061010001513414610ddc576040517f08c379a0000000000000000000000000000000000000000000000000000000008152600401610dd390612b56565b60405180910390fd5b600060076000815480929190610df190612820565b919050559050600060405180606001604052808581526020013373ffffffffffffffffffffffffffffffffffffffff168152602001600015158152509050806004600086815260200190815260200160002060008481526020019081526020016000206000820151816000015560208201518160010160006101000a81548173ffffffffffffffffffffffffffffffffffffffff021916908373ffffffffffffffffffffffffffffffffffffffff16021790555060408201518160010160146101000a81548160ff021916908315150217905550905050600560003373ffffffffffffffffffffffffffffffffffffffff1673ffffffffffffffffffffffffffffffffffffffff1681526020019081526020016000208190806001815401808255809150506001900390600052602060002090600202016000909190919091506000820151816000015560208201518160010160006101000a81548173ffffffffffffffffffffffffffffffffffffffff021916908373ffffffffffffffffffffffffffffffffffffffff16021790555060408201518160010160146101000a81548160ff02191690831515021790555050508260e0018051809190610fb690612820565b8152505081847f94c5953e15f54d38b82a662bdd5739fc91af3a23d3ef7e67269dfaeee71a813c33604051610feb91906122f5565b60405180910390a3505050610ffe61194e565b50565b6005602052816000526040600020818154811061101d57600080fd5b9060005260206000209060020201600091509150508060000154908060010160009054906101000a900473ffffffffffffffffffffffffffffffffffffffff16908060010160149054906101000a900460ff16905083565b60036020528060005260406000206000915054906101000a900473ffffffffffffffffffffffffffffffffffffffff1681565b60065481565b6004602052816000526040600020602052806000526040600020600091509150508060000154908060010160009054906101000a900473ffffffffffffffffffffffffffffffffffffffff16908060010160149054906101000a900460ff16905083565b428311611154576040517f08c379a000000000000000000000000000000000000000000000000000000000815260040161114b90612bc2565b60405180910390fd5b60008211611197576040517f08c379a000000000000000000000000000000000000000000000000000000000815260040161118e90612c54565b60405180910390fd5b6000600660008154809291906111ac90612820565b91905055905060405180610140016040528082815260200189815260200188815260200187815260200186815260200185815260200184815260200160008152602001838152602001600115158152506002600083815260200190815260200160002060008201518160000155602082015181600101908161122e9190612e20565b5060408201518160020190816112449190612e20565b50606082015181600301908161125a9190612e20565b5060808201518160040190816112709190612e20565b5060a0820151816005015560c0820151816006015560e0820151816007015561010082015181600801556101208201518160090160006101000a81548160ff021916908315150217905550905050336003600083815260200190815260200160002060006101000a81548173ffffffffffffffffffffffffffffffffffffffff021916908373ffffffffffffffffffffffffffffffffffffffff1602179055506001819080600181540180825580915050600190039060005260206000200160009091909190915055807f9c2f02f9bc3109d6ef9e6ddb6bd47137ccc8e9deabc67b747c58342a70d9e2c889863360405161136d93929190612ef2565b60405180910390a25050505050505050565b6060600060018054905067ffffffffffffffff8111156113a2576113a16120ba565b5b6040519080825280602002602001820160405280156113db57816020015b6113c8611ca7565b8152602001906001900390816113c05790505b50905060005b6001805490508110156116f1576002600060018381548110611406576114056127c2565b5b90600052602060002001548152602001908152602001600020604051806101400160405290816000820154815260200160018201805461144590612897565b80601f016020809104026020016040519081016040528092919081815260200182805461147190612897565b80156114be5780601f10611493576101008083540402835291602001916114be565b820191906000526020600020905b8154815290600101906020018083116114a157829003601f168201915b505050505081526020016002820180546114d790612897565b80601f016020809104026020016040519081016040528092919081815260200182805461150390612897565b80156115505780601f1061152557610100808354040283529160200191611550565b820191906000526020600020905b81548152906001019060200180831161153357829003601f168201915b5050505050815260200160038201805461156990612897565b80601f016020809104026020016040519081016040528092919081815260200182805461159590612897565b80156115e25780601f106115b7576101008083540402835291602001916115e2565b820191906000526020600020905b8154815290600101906020018083116115c557829003601f168201915b505050505081526020016004820180546115fb90612897565b80601f016020809104026020016040519081016040528092919081815260200182805461162790612897565b80156116745780601f1061164957610100808354040283529160200191611674565b820191906000526020600020905b81548152906001019060200180831161165757829003601f168201915b50505050508152602001600582015481526020016006820154815260200160078201548152602001600882015481526020016009820160009054906101000a900460ff1615151515815250508282815181106116d3576116d26127c2565b5b602002602001018190525080806116e990612820565b9150506113e1565b508091505090565b6001818154811061170957600080fd5b906000526020600020016000915090505481565b6000600180549050905090565b600080600460008681526020019081526020016000206000858152602001908152602001600020604051806060016040529081600082015481526020016001820160009054906101000a900473ffffffffffffffffffffffffffffffffffffffff1673ffffffffffffffffffffffffffffffffffffffff1673ffffffffffffffffffffffffffffffffffffffff1681526020016001820160149054906101000a900460ff16151515158152505090508481600001511461181f576040517f08c379a000000000000000000000000000000000000000000000000000000000815260040161181690612f7c565b60405180910390fd5b806040015115611864576040517f08c379a000000000000000000000000000000000000000000000000000000000815260040161185b90612fe8565b60405180910390fd5b6000611875868684602001516118d2565b9050600061188282611958565b90506000611890828761198e565b9050836020015173ffffffffffffffffffffffffffffffffffffffff168173ffffffffffffffffffffffffffffffffffffffff16149450505050509392505050565b60008383836040516020016118e993929190613071565b6040516020818303038152906040528051906020012090509392505050565b600260005403611944576040517f3ee5aeb500000000000000000000000000000000000000000000000000000000815260040160405180910390fd5b6002600081905550565b6001600081905550565b60007f19457468657265756d205369676e6564204d6573736167653a0a33320000000060005281601c52603c6000209050919050565b60008060008061199e86866119ba565b9250925092506119ae8282611a16565b82935050505092915050565b600080600060418451036119ff5760008060006020870151925060408701519150606087015160001a90506119f188828585611b7a565b955095509550505050611a0f565b60006002855160001b9250925092505b9250925092565b60006003811115611a2a57611a296130ae565b5b826003811115611a3d57611a3c6130ae565b5b0315611b765760016003811115611a5757611a566130ae565b5b826003811115611a6a57611a696130ae565b5b03611aa1576040517ff645eedf00000000000000000000000000000000000000000000000000000000815260040160405180910390fd5b60026003811115611ab557611ab46130ae565b5b826003811115611ac857611ac76130ae565b5b03611b0d578060001c6040517ffce698f7000000000000000000000000000000000000000000000000000000008152600401611b049190612254565b60405180910390fd5b600380811115611b2057611b1f6130ae565b5b826003811115611b3357611b326130ae565b5b03611b7557806040517fd78bce0c000000000000000000000000000000000000000000000000000000008152600401611b6c91906127a7565b60405180910390fd5b5b5050565b60008060007f7fffffffffffffffffffffffffffffff5d576e7357a4501ddfe92f46681b20a08460001c1115611bba576000600385925092509250611c64565b600060018888888860405160008152602001604052604051611bdf94939291906130f9565b6020604051602081039080840390855afa158015611c01573d6000803e3d6000fd5b505050602060405103519050600073ffffffffffffffffffffffffffffffffffffffff168173ffffffffffffffffffffffffffffffffffffffff1603611c5557600060016000801b93509350935050611c64565b8060008060001b935093509350505b9450945094915050565b604051806060016040528060008152602001600073ffffffffffffffffffffffffffffffffffffffff1681526020016000151581525090565b6040518061014001604052806000815260200160608152602001606081526020016060815260200160608152602001600081526020016000815260200160008152602001600081526020016000151581525090565b6000604051905090565b600080fd5b600080fd5b600073ffffffffffffffffffffffffffffffffffffffff82169050919050565b6000611d3b82611d10565b9050919050565b611d4b81611d30565b8114611d5657600080fd5b50565b600081359050611d6881611d42565b92915050565b600060208284031215611d8457611d83611d06565b5b6000611d9284828501611d59565b91505092915050565b600081519050919050565b600082825260208201905092915050565b6000819050602082019050919050565b6000819050919050565b611dda81611dc7565b82525050565b611de981611d30565b82525050565b60008115159050919050565b611e0481611def565b82525050565b606082016000820151611e206000850182611dd1565b506020820151611e336020850182611de0565b506040820151611e466040850182611dfb565b50505050565b6000611e588383611e0a565b60608301905092915050565b6000602082019050919050565b6000611e7c82611d9b565b611e868185611da6565b9350611e9183611db7565b8060005b83811015611ec2578151611ea98882611e4c565b9750611eb483611e64565b925050600181019050611e95565b5085935050505092915050565b60006020820190508181036000830152611ee98184611e71565b905092915050565b611efa81611dc7565b8114611f0557600080fd5b50565b600081359050611f1781611ef1565b92915050565b600060208284031215611f3357611f32611d06565b5b6000611f4184828501611f08565b91505092915050565b611f5381611dc7565b82525050565b600081519050919050565b600082825260208201905092915050565b60005b83811015611f93578082015181840152602081019050611f78565b60008484015250505050565b6000601f19601f8301169050919050565b6000611fbb82611f59565b611fc58185611f64565b9350611fd5818560208601611f75565b611fde81611f9f565b840191505092915050565b611ff281611def565b82525050565b60006101408201905061200e600083018d611f4a565b8181036020830152612020818c611fb0565b90508181036040830152612034818b611fb0565b90508181036060830152612048818a611fb0565b9050818103608083015261205c8189611fb0565b905061206b60a0830188611f4a565b61207860c0830187611f4a565b61208560e0830186611f4a565b612093610100830185611f4a565b6120a1610120830184611fe9565b9b9a5050505050505050505050565b600080fd5b600080fd5b7f4e487b7100000000000000000000000000000000000000000000000000000000600052604160045260246000fd5b6120f282611f9f565b810181811067ffffffffffffffff82111715612111576121106120ba565b5b80604052505050565b6000612124611cfc565b905061213082826120e9565b919050565b600067ffffffffffffffff8211156121505761214f6120ba565b5b61215982611f9f565b9050602081019050919050565b82818337600083830152505050565b600061218861218384612135565b61211a565b9050828152602081018484840111156121a4576121a36120b5565b5b6121af848285612166565b509392505050565b600082601f8301126121cc576121cb6120b0565b5b81356121dc848260208601612175565b91505092915050565b6000806000606084860312156121fe576121fd611d06565b5b600061220c86828701611f08565b935050602061221d86828701611f08565b925050604084013567ffffffffffffffff81111561223e5761223d611d0b565b5b61224a868287016121b7565b9150509250925092565b60006020820190506122696000830184611f4a565b92915050565b6000806040838503121561228657612285611d06565b5b600061229485828601611d59565b92505060206122a585828601611f08565b9150509250929050565b6122b881611d30565b82525050565b60006060820190506122d36000830186611f4a565b6122e060208301856122af565b6122ed6040830184611fe9565b949350505050565b600060208201905061230a60008301846122af565b92915050565b6000806040838503121561232757612326611d06565b5b600061233585828601611f08565b925050602061234685828601611f08565b9150509250929050565b600067ffffffffffffffff82111561236b5761236a6120ba565b5b61237482611f9f565b9050602081019050919050565b600061239461238f84612350565b61211a565b9050828152602081018484840111156123b0576123af6120b5565b5b6123bb848285612166565b509392505050565b600082601f8301126123d8576123d76120b0565b5b81356123e8848260208601612381565b91505092915050565b600080600080600080600060e0888a0312156124105761240f611d06565b5b600088013567ffffffffffffffff81111561242e5761242d611d0b565b5b61243a8a828b016123c3565b975050602088013567ffffffffffffffff81111561245b5761245a611d0b565b5b6124678a828b016123c3565b965050604088013567ffffffffffffffff81111561248857612487611d0b565b5b6124948a828b016123c3565b955050606088013567ffffffffffffffff8111156124b5576124b4611d0b565b5b6124c18a828b016123c3565b94505060806124d28a828b01611f08565b93505060a06124e38a828b01611f08565b92505060c06124f48a828b01611f08565b91505092959891949750929550565b600081519050919050565b600082825260208201905092915050565b6000819050602082019050919050565b600082825260208201905092915050565b600061254b82611f59565b612555818561252f565b9350612565818560208601611f75565b61256e81611f9f565b840191505092915050565b6000610140830160008301516125926000860182611dd1565b50602083015184820360208601526125aa8282612540565b915050604083015184820360408601526125c48282612540565b915050606083015184820360608601526125de8282612540565b915050608083015184820360808601526125f88282612540565b91505060a083015161260d60a0860182611dd1565b5060c083015161262060c0860182611dd1565b5060e083015161263360e0860182611dd1565b50610100830151612648610100860182611dd1565b5061012083015161265d610120860182611dfb565b508091505092915050565b60006126748383612579565b905092915050565b6000602082019050919050565b600061269482612503565b61269e818561250e565b9350836020820285016126b08561251f565b8060005b858110156126ec57848403895281516126cd8582612668565b94506126d88361267c565b925060208a019950506001810190506126b4565b50829750879550505050505092915050565b600060208201905081810360008301526127188184612689565b905092915050565b60006020820190506127356000830184611fe9565b92915050565b60008060006060848603121561275457612753611d06565b5b600061276286828701611f08565b935050602061277386828701611f08565b925050604061278486828701611d59565b9150509250925092565b6000819050919050565b6127a18161278e565b82525050565b60006020820190506127bc6000830184612798565b92915050565b7f4e487b7100000000000000000000000000000000000000000000000000000000600052603260045260246000fd5b7f4e487b7100000000000000000000000000000000000000000000000000000000600052601160045260246000fd5b600061282b82611dc7565b91507fffffffffffffffffffffffffffffffffffffffffffffffffffffffffffffffff820361285d5761285c6127f1565b5b600182019050919050565b7f4e487b7100000000000000000000000000000000000000000000000000000000600052602260045260246000fd5b600060028204905060018216806128af57607f821691505b6020821081036128c2576128c1612868565b5b50919050565b7f4f6e6c79206576656e742063726561746f722063616e206d61726b207469636b60008201527f6574732061732075736564000000000000000000000000000000000000000000602082015250565b6000612924602b83611f64565b915061292f826128c8565b604082019050919050565b6000602082019050818103600083015261295381612917565b9050919050565b7f496e76616c6964207469636b6574206f72207369676e61747572650000000000600082015250565b6000612990601b83611f64565b915061299b8261295a565b602082019050919050565b600060208201905081810360008301526129bf81612983565b9050919050565b7f4576656e74206973206e6f742061637469766500000000000000000000000000600082015250565b60006129fc601383611f64565b9150612a07826129c6565b602082019050919050565b60006020820190508181036000830152612a2b816129ef565b9050919050565b7f4576656e742068617320616c7265616479206f63637572726564000000000000600082015250565b6000612a68601a83611f64565b9150612a7382612a32565b602082019050919050565b60006020820190508181036000830152612a9781612a5b565b9050919050565b7f4576656e7420697320736f6c64206f7574000000000000000000000000000000600082015250565b6000612ad4601183611f64565b9150612adf82612a9e565b602082019050919050565b60006020820190508181036000830152612b0381612ac7565b9050919050565b7f496e636f7272656374207469636b657420707269636500000000000000000000600082015250565b6000612b40601683611f64565b9150612b4b82612b0a565b602082019050919050565b60006020820190508181036000830152612b6f81612b33565b9050919050565b7f4576656e742064617465206d75737420626520696e2074686520667574757265600082015250565b6000612bac602083611f64565b9150612bb782612b76565b602082019050919050565b60006020820190508181036000830152612bdb81612b9f565b9050919050565b7f546f74616c207469636b657473206d757374206265206772656174657220746860008201527f616e207a65726f00000000000000000000000000000000000000000000000000602082015250565b6000612c3e602783611f64565b9150612c4982612be2565b604082019050919050565b60006020820190508181036000830152612c6d81612c31565b9050919050565b60008190508160005260206000209050919050565b60006020601f8301049050919050565b600082821b905092915050565b600060088302612cd67fffffffffffffffffffffffffffffffffffffffffffffffffffffffffffffffff82612c99565b612ce08683612c99565b95508019841693508086168417925050509392505050565b6000819050919050565b6000612d1d612d18612d1384611dc7565b612cf8565b611dc7565b9050919050565b6000819050919050565b612d3783612d02565b612d4b612d4382612d24565b848454612ca6565b825550505050565b600090565b612d60612d53565b612d6b818484612d2e565b505050565b5b81811015612d8f57612d84600082612d58565b600181019050612d71565b5050565b601f821115612dd457612da581612c74565b612dae84612c89565b81016020851015612dbd578190505b612dd1612dc985612c89565b830182612d70565b50505b505050565b600082821c905092915050565b6000612df760001984600802612dd9565b1980831691505092915050565b6000612e108383612de6565b9150826002028217905092915050565b612e2982611f59565b67ffffffffffffffff811115612e4257612e416120ba565b5b612e4c8254612897565b612e57828285612d93565b600060209050601f831160018114612e8a5760008415612e78578287015190505b612e828582612e04565b865550612eea565b601f198416612e9886612c74565b60005b82811015612ec057848901518255600182019150602085019450602081019050612e9b565b86831015612edd5784890151612ed9601f891682612de6565b8355505b6001600288020188555050505b505050505050565b60006060820190508181036000830152612f0c8186611fb0565b9050612f1b6020830185611f4a565b612f2860408301846122af565b949350505050565b7f496e76616c6964207469636b657420666f722074686973206576656e74000000600082015250565b6000612f66601d83611f64565b9150612f7182612f30565b602082019050919050565b60006020820190508181036000830152612f9581612f59565b9050919050565b7f5469636b65742068617320616c7265616479206265656e207573656400000000600082015250565b6000612fd2601c83611f64565b9150612fdd82612f9c565b602082019050919050565b6000602082019050818103600083015261300181612fc5565b9050919050565b6000819050919050565b61302361301e82611dc7565b613008565b82525050565b60008160601b9050919050565b600061304182613029565b9050919050565b600061305382613036565b9050919050565b61306b61306682611d30565b613048565b82525050565b600061307d8286613012565b60208201915061308d8285613012565b60208201915061309d828461305a565b601482019150819050949350505050565b7f4e487b7100000000000000000000000000000000000000000000000000000000600052602160045260246000fd5b600060ff82169050919050565b6130f3816130dd565b82525050565b600060808201905061310e6000830187612798565b61311b60208301866130ea565b6131286040830185612798565b6131356060830184612798565b9594505050505056fea2646970667358221220679f15380119261ddffcfff84796ddaf33a88b490a1f22e01bfc8fd256f9120564736f6c63430008140033",
  "linkReferences": {},
  "deployedLinkReferences": {}
}